{
  "contractName": "HelloHari",
  "abi": [
    {
      "constant": false,
      "inputs": [
        {
          "name": "newTemp",
          "type": "string"
        }
      ],
      "name": "setTemp",
      "outputs": [
        {
          "name": "",
          "type": "string"
        }
      ],
      "payable": false,
      "stateMutability": "nonpayable",
      "type": "function",
      "signature": "0xc8d62e69"
    },
    {
      "constant": true,
      "inputs": [],
      "name": "getTemp",
      "outputs": [
        {
          "name": "",
          "type": "string"
        }
      ],
      "payable": false,
      "stateMutability": "view",
      "type": "function",
      "signature": "0x95252560"
    },
    {
      "constant": true,
      "inputs": [],
      "name": "sayHello",
      "outputs": [
        {
          "name": "",
          "type": "string"
        }
      ],
      "payable": false,
      "stateMutability": "pure",
      "type": "function",
      "signature": "0xef5fb05b"
    }
  ],
  "bytecode": "0x60806040526040805190810160405280600181526020017f30000000000000000000000000000000000000000000000000000000000000008152506000908051906020019061004f929190610062565b5034801561005c57600080fd5b50610107565b828054600181600116156101000203166002900490600052602060002090601f016020900481019282601f106100a357805160ff19168380011785556100d1565b828001600101855582156100d1579182015b828111156100d05782518255916020019190600101906100b5565b5b5090506100de91906100e2565b5090565b61010491905b808211156101005760008160009055506001016100e8565b5090565b90565b61040e806101166000396000f3fe608060405260043610610057576000357c0100000000000000000000000000000000000000000000000000000000900463ffffffff168063952525601461005c578063c8d62e69146100ec578063ef5fb05b146101b4575b600080fd5b34801561006857600080fd5b50610071610244565b6040518080602001828103825283818151815260200191508051906020019080838360005b838110156100b1578082015181840152602081019050610096565b50505050905090810190601f1680156100de5780820380516001836020036101000a031916815260200191505b509250505060405180910390f35b3480156100f857600080fd5b506101b26004803603602081101561010f57600080fd5b810190808035906020019064010000000081111561012c57600080fd5b82018360208201111561013e57600080fd5b8035906020019184600183028401116401000000008311171561016057600080fd5b91908080601f016020809104026020016040519081016040528093929190818152602001838380828437600081840152601f19601f8201169050808301925050505050505091929192905050506102e6565b005b3480156101c057600080fd5b506101c9610300565b6040518080602001828103825283818151815260200191508051906020019080838360005b838110156102095780820151818401526020810190506101ee565b50505050905090810190601f1680156102365780820380516001836020036101000a031916815260200191505b509250505060405180910390f35b606060008054600181600116156101000203166002900480601f0160208091040260200160405190810160405280929190818152602001828054600181600116156101000203166002900480156102dc5780601f106102b1576101008083540402835291602001916102dc565b820191906000526020600020905b8154815290600101906020018083116102bf57829003601f168201915b5050505050905090565b80600090805190602001906102fc92919061033d565b5050565b60606040805190810160405280600a81526020017f68656c6c6f204861726900000000000000000000000000000000000000000000815250905090565b828054600181600116156101000203166002900490600052602060002090601f016020900481019282601f1061037e57805160ff19168380011785556103ac565b828001600101855582156103ac579182015b828111156103ab578251825591602001919060010190610390565b5b5090506103b991906103bd565b5090565b6103df91905b808211156103db5760008160009055506001016103c3565b5090565b9056fea165627a7a72305820d21e2823990d647c14f7c68bc3528930f35c10075ebf7d44164cd0a7416b82bd0029",
  "source": "pragma solidity >=0.4.21 <0.6.0;\r\n\r\ncontract HelloHari {\r\n    //uint constant COAP_JOB = 2;\r\n    string temp = \"0\";\r\n\r\n    function setTemp(string memory newTemp) public {\r\n\r\n       temp = newTemp;\r\n\r\n   }\r\n\r\n   \r\n\r\n   function getTemp() public view returns (string memory) {\r\n\r\n       return temp;\r\n\r\n   }\r\n\r\n    function sayHello() public pure returns(string memory){\r\n        return(\"hello Hari\");\r\n    }\r\n    // function coapExample() public {\r\n    //     string memory coapServer = \"eval:const coap = require('coap');  req = coap.request('coap://localhost:5683'); req.on('response', function(res) { res.pipe(process.stdout); }); req.end();\";\r\n    //     Run(DaysUntilNext15th_Id, coapServer, \"\", \"coap\", 2, DEFAULT_GAS_UNITS, DEFAULT_GAS_PRICE);    \r\n    //     Run(\r\n    //         COAP_JOB, /* give the job a unique ID */            \r\n    //         /* JavaScript code I want to execute: */\r\n    //         \"module.exports = async function(CaptainJSIn) { const coap = require('coap');  req = coap.request('coap://localhost:5683'); req.on('response', function(res) { res.pipe(process.stdout); }); req.end();\",\r\n    //         Country, /* Input parameter which will result in CaptainJSIn (see above) */\r\n    //         \"coap\", /* Nodejs libraries we need */\r\n    //         3, /* we need a maximum of 3 runtime slices */\r\n    //         200000, /* use 200,000 gas units */\r\n    //         DEFAULT_GAS_PRICE /* use default gas price */\r\n    //     );    \r\n    // }\r\n}\r\n",
  "sourcePath": "D:/HariMasters/IOT/truffle_client/contracts/HelloHari.sol",
  "compiler": {
    "name": "solc",
    "version": "0.5.0+commit.1d4f565a.Emscripten.clang"
  },
  "schemaVersion": "3.0.6",
  "updatedAt": "2019-04-29T08:06:34.836Z",
  "devdoc": {
    "methods": {}
  },
  "userdoc": {
    "methods": {}
  }
}